:100000000C940D010C9435010C9435010C943501C0
:100010000C9435010C9435010C9435010C94350188
:100020000C9435010C9435010C9486050C94F5055F
:100030000C9435010C9435010C9435010C94350168
:100040000C9435010C9435010C9435010C94350158
:100050000C9435010C9435010C9435010C943C053D
:100060000C9435010C9435010C9435010C94350138
:100070000C9435010C9435010C9435010C94350128
:100080000C9435010C9435010C9435010C94350118
:100090000C9435010C9435010C9435010C94350108
:1000A0000C9435010C9435010C94350100407A1004
:1000B000F35A00A0724E18090010A5D4E80000E819
:1000C0007648170000E40B54020000CA9A3B000077
:1000D00000E1F505000080969800000040420F0006
:1000E0000000A08601000000102700000000E803C7
:1000F000000000006400000000000A000000000092
:100100000100000000002C76D888DC674F0823DF50
:10011000C1DFAE59E1B1B796E5E3E453C63AE65123
:10012000997696E8E6C28426EB898C9B62ED407C4A
:100130006FFCEFBC9C9F40F2BAA56FA5F490055AE6
:100140002AF75C936B6CF9676DC11BFCE0E40D470B
:10015000FEF520E6B500D0ED902E0300943577052E
:100160000080841E080000204E0A000000C80C33E6
:100170003333330F986E12831141EF8D2114893B75
:10018000E65516CFFEE6DB18D1844B381BF77C1DF5
:10019000901DA4BBE424203284725E228100C9F148
:1001A00024ECA1E53D27080B00020202000009042F
:1001B00000000102020000052400100105240101D5
:1001C000010424020605240600010705810310002E
:1001D0004009040100020A00000007050202400075
:1001E0000007058302400000040309041201000215
:1001F000EF020140412337800001010203014172F7
:100200006475696E6F204C4C430041726475696E71
:100210006F204D6963726F00680911241FBECFEF14
:10022000DAE0DEBFCDBF21E0A2E6B1E001C01D9261
:10023000A63DB207E1F711E0A0E0B1E0E0E7FCE1A4
:1002400002C005900D92A236B107D9F711E0CDE0BA
:10025000D1E004C02197FE010E943E0CCC30D107B2
:10026000C9F70E9427080C94360E0C940000FC017C
:1002700080918101882311F13FB7F89482E0809347
:10028000E9002091F200822F90E01816190614F46C
:1002900081E090E0882339F0289A44E64093800179
:1002A0004091F1004083222339F02091F200211186
:1002B00003C02BE62093E8003FBF08958FEF9FEF28
:1002C00008952FB7F89483E08093E9009091E800B7
:1002D000892F807295FF04C09091F20080E4891B01
:1002E0002FBF08958091780181110DC082E0809325
:1002F000740184E080937501109277011092760169
:1003000081E08093780184E791E008953FB7F89405
:100310008091700190917101A0917201B09173016F
:1003200026B5A89B05C02F3F19F00196A11DB11D50
:100330003FBFBA2FA92F982F8827BC01CD01620F8C
:10034000711D811D911D42E0660F771F881F991F47
:100350004A95D1F70895CF92DF92EF92FF920E94D3
:1003600086016B017C010E9486016C197D098E0952
:100370009F09683E734081059105A8F3FF90EF90B7
:10038000DF90CF900895FC012481358162177307B7
:1003900020F480819181009729F41092680188E609
:1003A00091E00895860F971F089540916401509140
:1003B0006501209162013091630142175307B4F443
:1003C0009091E8009570E1F39091E80092FD19C0DA
:1003D0008093F100809164019091650101968F7383
:1003E0009927892B19F48EEF8093E800809164019E
:1003F000909165010196909365018093640181E07D
:10040000089580E00895EF92FF920F931F93CF938A
:10041000DF93F82E192FE62E042F81E0860F880F28
:100420000E94D50183E00E94D501CF2DD12FEC0E83
:10043000FD2EF11CCE15DF05B9F007FF13C0FE013C
:1004400084910E94D501182F80E00E94D50181235C
:1004500021968111EFCFDF91CF911F910F91FF90E6
:10046000EF9008958881EDCF81E0F5CFDF92EF9294
:10047000FF920F931F93CF93DF93D82E8A01EB0146
:100480007B01E40EF51ECE15DF0559F0D7FE12C034
:10049000FE0184910E94D50121968111F4CF0FEFC6
:1004A0001FEFC801DF91CF911F910F91FF90EF9047
:1004B000DF9008958881EECF0F931F93CF93DF9342
:1004C0001F92CDB7DEB782E0898342E450E066EA4E
:1004D00071E080E80E9436020E947201DC011296EF
:1004E0000D911C910115110589F0D801ED91FC9138
:1004F0000280F381E02DBE016F5F7F4FC801099537
:1005000097FD04C0F80100851185ECCF89810F901B
:10051000DF91CF911F910F910895615030F020919C
:10052000F100FC0120830196F8CF289A84E680939D
:10053000800108958F929F92AF92BF92CF92DF92E7
:10054000EF92FF920F931F93CF93DF936C017B0188
:100550008A0180910B01882309F458C080918101A0
:10056000882309F453C08091690180FF05C0809100
:10057000E00082608093E000E801B12C8AEFA82EB1
:1005800093E0892E2AE3922E209711F4BB20B9F133
:100590000E946101811106C0AA94AA20B9F10E94AB
:1005A000AB01F2CF8C171D0611F00CF08C2F9FB70A
:1005B000F8948092E9002091E80025FD02C09FBFD9
:1005C000E3CF282F30E0C21BD30BF701815020F07E
:1005D00041914093F100FACFE20EF31EBB2021F0CF
:1005E0009092E800B12CEBCF8091E80085FDE7CF39
:1005F0009092E800BB24B394209709F3F3CF5D9A5F
:1006000084E680936701101611063CF081E090E0CB
:10061000F6019383828310E000E0C801DF91CF915F
:100620001F910F91FF90EF90DF90CF90BF90AF9010
:100630009F908F900895CF93DF931F92CDB7DEB731
:100640006983DC01ED91FC910280F381E02D41E0B2
:1006500050E0BE016F5F7F4F09950F90DF91CF9102
:10066000089583E08093E9008091F200882319F0D7
:100670008AE38093E80008950E94610190E0089564
:10068000CF93DF931F92CDB7DEB7FC0184859585AC
:1006900097FD08C02FEF3FEF358724870F90DF913C
:1006A000CF910895CE0101960E943701019719F468
:1006B000898190E0F3CF8FEF9FEFF0CF0F931F93DF
:1006C000CF93DF931F92CDB7DEB78C01FC018485F9
:1006D000958597FF0BC0CE0101960E9437010197C7
:1006E00071F4898190E0F80195878487F801848509
:1006F00095850F90DF91CF911F910F9108958FEF06
:100700009FEFF1CFFC018485958597FD0BC09FB7C6
:10071000F89482E08093E9008091F2009FBF90E01E
:10072000019608959FB7F89482E08093E900809144
:10073000F2009FBF90E0089542E050E06BE271E06C
:1007400082E891E00C949A020F931F93CF93DF936A
:10075000EC0188819981009759F02A813B81261705
:10076000370730F081E0DF91CF911F910F9108950D
:100770008B016F5F7F4F0E94690D009759F099833D
:1007800088831B830A832C813D81232B59F7FC012D
:100790001082E8CF80E0E7CFEF92FF920F931F9394
:1007A000CF93DF936115710541F480E0DF91CF9124
:1007B0001F910F91FF90EF90089541155105B1F0F1
:1007C0007B01EC010C811D81040F151FB8010E94F3
:1007D000A403882351F3288139818C819D81B7013D
:1007E000820F931F0E942F0E1D830C8381E0DECFAA
:1007F000CF93DF93EC0188819981009711F00E94DB
:10080000E00C198218821D821C821B821A82DF91E1
:10081000CF910895CF93DF93EC01FB01019000206D
:10082000E9F73197AF01461B570B0E94CC038111AA
:1008300003C0CE010E94F803CE01DF91CF9108954D
:10084000EF92FF920F931F93CF93DF93EC017B0105
:100850008A01BA010E94A40381110BC0CE010E943B
:10086000F803CE01DF91CF911F910F91FF90EF9090
:1008700008951D830C83B701888199810E942F0EF2
:10088000F0CFCF93DF93EC01FB018617970749F078
:10089000608171816115710541F0448155810E942B
:1008A0002004CE01DF91CF9108950E94F803F9CF83
:1008B000FC01118210821382128215821482FB01C4
:1008C00001900020E9F73197AF01461B570B0C94BC
:1008D0002004FC0180819181009711F00C94E00CC0
:1008E0000895EF92FF920F931F93CF93DF93CDB7AD
:1008F000DEB7A4970FB6F894DEBF0FBECDBF1A8E39
:10090000198E1C8E1B8E1E8E1D8EBC01CE0149962B
:100910000E94410410E000E0F12CE12C8D8D9E8DB1
:100920000817190770F40115110509F07DC0B80109
:10093000CE0149960E94C301FC0180818A3209F0F0
:100940008BC01C8A1B8A1E8A1D8A188E1F8A40E152
:100950008E010F5F1F4FB8018F2D0F2C000C990BCC
:100960000E949B09F80101900020E9F73197AF013F
:10097000401B510BB801CE0143960E942004F9E0C0
:10098000FF150CF074C09DE2E92E91E0F92E1A8259
:1009900019821C821B821E821D82BE01675E7F4FF0
:1009A000C8010E944104B701C8010E940A047C01E9
:1009B0004F89588D6B897C890E94CC03811103C0BB
:1009C000C7010E94F80318A21F8E1AA219A21CA226
:1009D0001BA2B701CE014F960E944104C8010E949C
:1009E0006904CE0143960E946904CE0149960E9493
:1009F00069044BA15CA16F8D78A182E891E00E940F
:100A00009A020E949C03CE014F960E946904A4960C
:100A10000FB6F894DEBF0FBECDBFDF91CF911F910F
:100A20000F91FF90EF900895B80161507109CE01C8
:100A300049960E94C301FC018081843209F077CF7E
:100A4000B801CE0149960E94C301FC01F080EE245A
:100A5000E3940F5F1F4F62CFEE20D9F3B801CE01B0
:100A600049960E94C301FC018081F826F2CF8EE2F4
:100A7000E82E81E0F82E8BCF1F920F920FB60F92C7
:100A800011242F933F938F939F93AF93BF938091A4
:100A90006C0190916D01A0916E01B0916F01309148
:100AA0006B0123E0230F2D3758F50196A11DB11DD1
:100AB00020936B0180936C0190936D01A0936E0164
:100AC000B0936F018091700190917101A0917201BA
:100AD000B09173010196A11DB11D80937001909397
:100AE0007101A0937201B0937301BF91AF919F9177
:100AF0008F913F912F910F900FBE0F901F901895DF
:100B000026E8230F0296A11DB11DD2CF1F920F928E
:100B10000FB60F9211248F939F938091E1009091D3
:100B2000E100937F9093E10083FF0FC01092E900F2
:100B300091E09093EB001092EC0092E39093ED0023
:100B40001092810198E09093F00082FF22C093E020
:100B50009093E9009091F200992319F09AE3909311
:100B6000E80090916701992341F0909167019150BD
:100B700090936701911101C05D9890918001992334
:100B800041F090918001915090938001911101C0AA
:100B9000289884FF18C08091E2008E7E8160809347
:100BA000E2008091E1008F7E8093E10080916901F5
:100BB0008E7E8061809369019F918F910F900FBE0F
:100BC0000F901F90189580FFF7CF8091E2008E7EE6
:100BD00080618093E2008091E1008E7E8093E1004D
:100BE000809169018E7E8160E5CF1F920F920FB6D2
:100BF0000F921124CF92DF92EF92FF920F931F93E7
:100C00002F933F934F935F936F937F938F939F9314
:100C1000AF93BF93EF93FF93CF93DF93CDB7DEB73F
:100C20006C97DEBFCDBF1092E9008091E80083FF92
:100C300025C068E0CE0145960E948D0282EF809328
:100C4000E8008D8987FF39C09091E80090FFFCCFC4
:100C5000982F907609F034C19E894F89588D2F893D
:100C6000F88C911131C0803861F580916A018093D0
:100C7000F1001092F1008EEF8093E8006C960FB6B1
:100C8000F894DEBF0FBECDBFDF91CF91FF91EF9102
:100C9000BF91AF919F918F917F916F915F914F9194
:100CA0003F912F911F910F91FF90EF90DF90CF9088
:100CB0000F900FBE0F901F9018959EEF9093E80035
:100CC000C7CF1092F100D5CF913059F48111D3CF15
:100CD0004130510581F680916A018D7F80936A01D0
:100CE000CACF933049F48111C6CF4130510519F66E
:100CF00080916A018260F2CF953041F48091E800E2
:100D000080FFFCCF20682093E300B5CF963009F038
:100D1000A9C00B8D1C8D22E01092E9001092650194
:100D200010926401F2122EC01092630110926201BF
:100D30000E945C021F8299E09983FA8291E09E836F
:100D400090EA98879AEF9987209164013091650124
:100D5000275F3F4F3C832B838D831092E9001092D5
:100D6000650110926401109363010093620149E0F0
:100D700050E0BE016F5F7F4F80E00E9436020E940C
:100D80005C0279CF10936301009362010E947201AB
:100D9000DC0112960D911C910115110509F451C148
:100DA000D801ED91FC910480F581E02DBE016B5ED0
:100DB0007F4FC8010995009709F03EC1F8010085F1
:100DC0001185EACFF3E0FF120EC08F89882309F462
:100DD00040C0823061F440E86DE08AE092E00E9419
:100DE0000302811148CF81E28093EB0047CF81302D
:100DF00029F440E86BE08EEF91E0F1CF833099F772
:100E00000E947201DC011296ED90FC908E010F5F42
:100E10001F4F6801E114F10479F0D701ED91FC91C5
:100E20000680F781E02DB801C7010995080F111D53
:100E3000F701E084F184EECFD8011C92F601019015
:100E40000020E9F73197BF016C197D0940E0C60128
:100E5000C6CF68EE71E0FB01449150E080E80E944B
:100E6000360209CF973009F4BECF983021F481E0E3
:100E70008093F10000CF993009F0FDCE837009F026
:100E8000B2CFE5E2F1E081E031E096E32191222367
:100E900071F08093E9003093EB00DF0111972C9102
:100EA0002093EC009093ED008F5F873079F78EE709
:100EB0008093EA001092EA008F8980938101DBCE53
:100EC0008B8D9C8D1092E900109265011092640147
:100ED0009093630180936201898D811192C08E8904
:100EE0009D89913A49F4813209F07DCF47E050E085
:100EF00064E071E080E0B3CF913209F074CF8332C7
:100F000069F48F89988DB0E0A0E080930001909300
:100F10000101A0930201B0930301ADCE803269F4C8
:100F20008091E80082FFFCCF67E084E091E00E94BE
:100F30008D028BEF8093E8009ECE823209F09BCE2B
:100F40008F8980930B01EEEFFFE7859194918B3FA2
:100F50009C4D51F1E0E0F8E0809104019091050191
:100F6000A0910601B0910701803B9440A105B10515
:100F7000F1F480910B0180FD1AC0EE3F8AE0F80782
:100F800089F587E797E7918380838091600080935C
:100F9000660188E19BE00FB6F894A8958093600005
:100FA0000FBE9093600067CEEEEFFAE0D5CF808160
:100FB00091818737974709F05ECEA89580916000B0
:100FC0008861809360008091660180936000EE3FAD
:100FD0002AE0F20789F08091FE0A9091FF0A91833E
:100FE000808349CE808191818737980751F2909311
:100FF000FF0A8093FE0AC5CF1092FF0A1092FE0AE4
:101000003ACE0E947201DC0112960D911C910115DD
:10101000110509F4E8CED801ED91FC910190F08121
:10102000E02DBE016B5E7F4FC8010995811123CE73
:10103000F80100851185EBCF181619060CF41BCEAC
:10104000D2CEF1E0FF12BECE6CEE71E004CFCF93B2
:10105000DF93CDB7DEB7AD970FB6F894DEBF0FBE06
:10106000CDBF789484B5826084BD84B5816084BD31
:1010700085B5826085BD85B5816085BD80916E0036
:10108000816080936E001092810080918100826067
:1010900080938100809181008160809381008091A4
:1010A00080008160809380008091910082608093B5
:1010B00091008091910081608093910080919000D7
:1010C0008160809390008091C10084608093C10012
:1010D0008091C10082608093C1008091C1008160D5
:1010E0008093C1008091C30081608093C300809190
:1010F000C00082608093C0008091C20081608093B4
:10110000C20080917A00846080937A0080917A0096
:10111000826080937A0080917A00816080937A0067
:1011200080917A00806880937A00109281011092F9
:101130006A01109269018091D70081608093D70085
:1011400080EA8093D80089B5806189BD89B58260C5
:1011500089BD09B400FEFDCF0E94AB018091D8008B
:101160008F7C80618093D8008091E000807F8093A5
:10117000E0008091E1008E7E8093E1008DE080931D
:10118000E200559A209A5D9828988FEF9FEF9093F0
:101190008F0180938E010E949C031BA21AA21DA2A4
:1011A0001CA21FA21EA28E010F5F1F4F22E044E06F
:1011B00066E676E98EE794E40E947D09009709F4DB
:1011C00082C0FC0101900020E9F73197AF01481B74
:1011D000590BBC01CE0182960E94200460E371E0AD
:1011E000CE0188960E9458044EA15FA16AA17BA1FE
:1011F000CE0188960E94CC03811104C0CE0188964E
:101200000E94F8036FE571E0CE0188960E940A04FF
:101210001A8219821C821B821E821D82BC01CE0191
:1012200001960E944104CE0101960E947104CE01F4
:1012300001960E946904CE0188960E946904CE013D
:1012400082960E94690468E371E0CE0101960E94D3
:101250005804CE0101960E947104CE0101960E94AD
:1012600069046CE371E0CE0101960E945804CE013E
:1012700001960E947104CE0101960E94690463E404
:1012800071E0CE0101960E945804CE0101960E94A1
:101290007104CE0101960E94690462E571E0CE01FD
:1012A00001960E945804CE0101960E947104CE015D
:1012B00001960E94690400E010E001151105E9F3B0
:1012C0000E940000FACFCE0182960E94F80386CFDA
:1012D000E2E8F1E01382128288EE93E0A0E0B0E051
:1012E00084839583A683B78386E191E0918380838D
:1012F0008FEF9FEF958784870895EF920F931F9349
:10130000CF93DF93E80134E047FD34E1042E000C75
:10131000550B57FF03C0519541955109E32E022FFC
:10132000242FAE010E94C009CE01DF91CF911F9101
:101330000F91EF900895BB274A3031F4992322F49E
:10134000BDE2909581959F4F0C94A709BB27FB01A7
:101350005527AA27880F991FAA1FA41710F0A41BAE
:1013600083955051B9F7A05DAA3308F0A95DA19308
:10137000009779F7B111B1931192CB010C94F70B4F
:10138000A9E0B0E0E6ECF9E00C940D0C6A01F22E55
:10139000B02E102FFBE3AF2EA01608F41BE31F5F47
:1013A000012F27E0AE014F5F5F4F0E941F0BBC0172
:1013B0008981982F9970913009F43FC09BE2E1FC3C
:1013C00004C09E2D9170E0FC3AC05E2D5071E82F54
:1013D000E87083FF46C084E0911101C083E0EF2DE7
:1013E000E81B8F1508F0E0E0D6018E2F20E2552390
:1013F00051F1992329F0D6019C93C60101966C0105
:1014000096012D5F3F4FE2FE24C08EE4D6018C93FF
:1014100091E411969C93119712968C93D9018E2F7B
:1014200090E281111BC0E20FF32FF11D10828EEFAD
:101430009FEF2996ECE00C94290C9DE2C6CF90E238
:10144000C4CF2D9381508111FCCFCE0ED11CE0E092
:10145000D0CF8EE6D6018C9391E6DBCF9D93815061
:10146000E0CF482F447082FF3DC084E0911101C05D
:1014700083E08F1510F4EF2DE81BD6018E2F20E2AC
:10148000552309F1992329F0D6019C93C6010196B1
:101490006C0196012D5F3F4FE2FE1BC089E4D6012F
:1014A0008C938EE411968C93119786E412968C930C
:1014B000D9018E2F90E2882309F4B5CF9D938150F6
:1014C000FACF2D9381508111FCCFCE0ED11CE0E0DC
:1014D000D9CF89E6D6018C938EE611968C9311971D
:1014E00086E6E4CF9B0177FF02C030E020E0A1E078
:1014F000B0E0911102C0B0E0A0E0F9013196AE0F6A
:10150000BF1F8B2C912CBB2009F461C05401EFEF5D
:10151000AE1ABE0AAA0DBB1DFA161B0619F014F06E
:101520004F2D4A1B511188C0E3FC59C07601A42FEE
:10153000B0E2A1114FC0C40ED11C992309F45BC0C5
:1015400040E0D6011196F60190836D01552309F410
:1015500048C0012F060F9A81582F507184FF03C095
:10156000913309F4015010160CF047C0093008F00F
:1015700008E0EEE2FE2E5B01A01AB108850191940D
:10158000819491082F3F320729F4D601FC92F6018D
:1015900031966F016217730794F1021713077CF5F8
:1015A000DB01A21BB30BAA24A394B12CAC0EBD1E6D
:1015B000AA0DBB1D11968C9121503109D6011196AF
:1015C00028153905F4F0F60180836D01DBCFB12CCD
:1015D000A12CA0CFF701B1937F01A150AACF911107
:1015E000B0CFD601942F50E302C05D93915091117A
:1015F000FCCFC40ED11C40E0ACCF01E0BACF80E3F9
:10160000DBCF6217730731F4963388F4953311F406
:10161000552369F0F6018083FD01842F90E281114A
:1016200008C0A40FB11D1C9290E080E002CF81E3BE
:10163000F1CF91938150F3CF911183CF8ACF28308E
:1016400008F027E03327DA01990F311D87FD9160FB
:1016500000966105710539F432602E5F3D9330E3E9
:101660002A95E1F708959F3F30F0803871056105B4
:1016700009F03C5F3C5F3D93913008F08068911D1C
:10168000DF93CF931F930F93FF92EF92192F987FC1
:101690009695E92F96959695E90FFF27EA5FFE4FFD
:1016A00099273327EE24FF24A701E701059008942A
:1016B000079428F4360FE71EF81E491F511D660FC8
:1016C000771F881F991F0694A1F70590079428F4A7
:1016D000E70EF81E491F561FC11D770F881F991F5F
:1016E000661F0694A1F70590079428F4F80E491F89
:1016F000561FC71FD11D880F991F661F771F06949D
:10170000A1F70590079420F4490F561FC71FD81F53
:10171000990F661F771F881F0694A9F7849110956B
:10172000177041F0D695C79557954795F794E7946C
:101730001A95C1F7ECEAF0E068941590159135918F
:101740006591959105907FE27395E118F10A430B3D
:10175000560BC90BD009C0F7E10CF11E431F561FF1
:10176000C91FD01D7EF4703311F48A95E6CFE8943A
:10177000015030F0080F0AF40027021708F4202F58
:101780002395022F7A3328F079E37D932A95E9F7A0
:1017900010C07D932A9589F606949795679537959D
:1017A00017951794E118F10A430B560BC90BD00992
:1017B00098F023957E9173957A3308F070E37C93CB
:1017C0002013B8F77E9170617D9330F0839571E3BB
:1017D0007D9370E32A95E1F71124EF90FF900F912C
:1017E0001F91CF91DF91992787FD90950895DC0196
:1017F000FC01672F71917723E1F7329704C07C9148
:101800006D9370836291AE17BF07C8F308952F924E
:101810003F924F925F926F927F928F929F92AF9280
:10182000BF92CF92DF92EF92FF920F931F93CF93CD
:10183000DF93CDB7DEB7CA1BDB0B0FB6F894DEBF64
:101840000FBECDBF09942A88398848885F846E848A
:101850007D848C849B84AA84B984C884DF80EE80D4
:10186000FD800C811B81AA81B981CE0FD11D0FB6DD
:10187000F894DEBF0FBECDBFED010895EE0FFF1F40
:101880000590F491E02D09940F931F93CF93DF936C
:101890008230910510F482E090E0E091D401F09163
:1018A000D50130E020E0B0E0A0E0309799F42115B8
:1018B000310509F44AC0281B390B24303105D8F50D
:1018C0008A819B816115710589F1FB019383828374
:1018D000FE0111C0408151810281138148175907CF
:1018E000E0F04817590799F4109761F012960C939D
:1018F000129713961C933296CF01DF91CF911F91CF
:101900000F9108950093D4011093D501F4CF2115C0
:10191000310551F04217530738F0A901DB019A0154
:10192000BD01DF01F801C1CFEF01F9CF9093D501DF
:101930008093D401CDCFFE01E20FF31F81939193E9
:101940002250310939832883D7CF2091D201309199
:10195000D301232B41F420910E0130910F013093DC
:10196000D3012093D20120910C0130910D0121155A
:10197000310541F42DB73EB740911001509111014E
:10198000241B350BE091D201F091D301E217F3074C
:10199000A0F42E1B3F0B2817390778F0AC014E5FDF
:1019A0005F4F2417350748F04E0F5F1F5093D30148
:1019B0004093D201819391939FCFF0E0E0E09CCFE0
:1019C000CF93DF930097E9F0FC01329713821282E4
:1019D000A091D401B091D501ED0130E020E0109745
:1019E000A1F420813181820F931F2091D201309187
:1019F000D3012817390709F061C0F093D301E093B0
:101A0000D201DF91CF910895EA01CE17DF07E8F503
:101A10004A815B819E0141155105B1F7E901FB83C4
:101A2000EA8349915991C40FD51FEC17FD0761F462
:101A3000808191810296840F951FE90199838883A3
:101A4000828193819B838A83F0E0E0E012968D91FE
:101A50009C9113970097B9F52D913C911197CD0169
:101A60000296820F931F2091D2013091D301281743
:101A7000390739F6309751F51092D5011092D401FB
:101A8000B093D301A093D201BCCFD383C283408152
:101A90005181840F951FC817D90761F44E5F5F4FBE
:101AA00088819981480F591F518340838A819B8186
:101AB000938382832115310509F0B0CFF093D501CE
:101AC000E093D4019ECFFD01DC01C0CF13821282CE
:101AD000D7CFB0E0A0E0EFE6FDE00C94090C8C015C
:101AE000009751F4CB010E94440C8C01C801CDB782
:101AF000DEB7E0E10C94250CFC01E60FF71F9C011A
:101B000022503109E217F30708F49DC0D901CD91A5
:101B1000DC911197C617D70798F0C530D10530F37F
:101B2000CE0104978617970708F3C61BD70B229799
:101B3000C193D1936D937C93CF010E94E00CD6CFDB
:101B40005B01AC1ABD0A4C018C0E9D1EA091D40104
:101B5000B091D501512C412CF12CE12C109731F58D
:101B60008091D2019091D3018815990509F05CC04C
:101B70004616570608F058C080910C0190910D014F
:101B8000009741F48DB79EB740911001509111011B
:101B9000841B950BE817F90708F055C0F093D301A3
:101BA000E093D201F90171836083A0CF8D919C9164
:101BB000119712966C90129713967C901397A81514
:101BC000B90559F56C0142E0C40ED11CCA14DB04FE
:101BD00020F1AC014A195B09DA011296159780F0E1
:101BE0006282738251834083D9016D937C93E114A7
:101BF000F10471F0D7011396FC93EE93129776CF10
:101C000022968C0F9D1FF90191838083F301EFCF02
:101C1000F093D501E093D40169CF4816590608F432
:101C20002C017D01D3019ACFCB010E94440C7C0191
:101C3000009749F0AE01B8010E94260EC8010E942B
:101C4000E00C870153CF10E000E050CFFB01DC0136
:101C500002C001900D9241505040D8F70895FB0109
:101C6000DC0101900D920020E1F70895F894FFCF78
:101C7000FFFFFFFF00E10000000000000000D601B0
:101C80008000000000001B039A023C033103820322
:101C900040035E0300C180810000000D0A00300097
:101CA00024504F562C502C00746573742474657343
:101CB000742A0024504F562C502C3935312E373889
:101CC0002A0024504F562C502C3935312E38342AC6
:021CD000000012
:00000001FF
